{"abi":[{"type":"constructor","inputs":[{"name":"_usdc","type":"address","internalType":"address"},{"name":"_oracle","type":"address","internalType":"address"}],"stateMutability":"nonpayable"},{"type":"function","name":"exit","inputs":[{"name":"traderId","type":"uint256","internalType":"uint256"}],"outputs":[],"stateMutability":"nonpayable"},{"type":"function","name":"followerStakes","inputs":[{"name":"","type":"uint256","internalType":"uint256"},{"name":"","type":"address","internalType":"address"}],"outputs":[{"name":"follower","type":"address","internalType":"address"},{"name":"stakedAmount","type":"uint256","internalType":"uint256"},{"name":"earnedAmount","type":"uint256","internalType":"uint256"},{"name":"joinedAt","type":"uint256","internalType":"uint256"},{"name":"exists","type":"bool","internalType":"bool"}],"stateMutability":"view"},{"type":"function","name":"getFollowerStake","inputs":[{"name":"traderId","type":"uint256","internalType":"uint256"},{"name":"follower","type":"address","internalType":"address"}],"outputs":[{"name":"","type":"tuple","internalType":"struct VigilSlash.FollowerStake","components":[{"name":"follower","type":"address","internalType":"address"},{"name":"stakedAmount","type":"uint256","internalType":"uint256"},{"name":"earnedAmount","type":"uint256","internalType":"uint256"},{"name":"joinedAt","type":"uint256","internalType":"uint256"},{"name":"exists","type":"bool","internalType":"bool"}]}],"stateMutability":"view"},{"type":"function","name":"getFollowers","inputs":[{"name":"traderId","type":"uint256","internalType":"uint256"}],"outputs":[{"name":"","type":"address[]","internalType":"address[]"}],"stateMutability":"view"},{"type":"function","name":"getTraderBond","inputs":[{"name":"traderId","type":"uint256","internalType":"uint256"}],"outputs":[{"name":"","type":"tuple","internalType":"struct VigilSlash.TraderBond","components":[{"name":"trader","type":"address","internalType":"address"},{"name":"bondAmount","type":"uint256","internalType":"uint256"},{"name":"slashThreshold","type":"uint256","internalType":"uint256"},{"name":"currentScore","type":"uint256","internalType":"uint256"},{"name":"createdAt","type":"uint256","internalType":"uint256"},{"name":"status","type":"uint8","internalType":"enum VigilSlash.BondStatus"}]}],"stateMutability":"view"},{"type":"function","name":"nextTraderId","inputs":[],"outputs":[{"name":"","type":"uint256","internalType":"uint256"}],"stateMutability":"view"},{"type":"function","name":"oracle","inputs":[],"outputs":[{"name":"","type":"address","internalType":"address"}],"stateMutability":"view"},{"type":"function","name":"owner","inputs":[],"outputs":[{"name":"","type":"address","internalType":"address"}],"stateMutability":"view"},{"type":"function","name":"postBond","inputs":[{"name":"amount","type":"uint256","internalType":"uint256"},{"name":"slashThreshold","type":"uint256","internalType":"uint256"},{"name":"initialScore","type":"uint256","internalType":"uint256"}],"outputs":[{"name":"traderId","type":"uint256","internalType":"uint256"}],"stateMutability":"nonpayable"},{"type":"function","name":"protocolFeePercent","inputs":[],"outputs":[{"name":"","type":"uint256","internalType":"uint256"}],"stateMutability":"view"},{"type":"function","name":"setOracle","inputs":[{"name":"newOracle","type":"address","internalType":"address"}],"outputs":[],"stateMutability":"nonpayable"},{"type":"function","name":"slash","inputs":[{"name":"traderId","type":"uint256","internalType":"uint256"},{"name":"slashPercent","type":"uint256","internalType":"uint256"}],"outputs":[],"stateMutability":"nonpayable"},{"type":"function","name":"stake","inputs":[{"name":"traderId","type":"uint256","internalType":"uint256"},{"name":"amount","type":"uint256","internalType":"uint256"}],"outputs":[],"stateMutability":"nonpayable"},{"type":"function","name":"traderBonds","inputs":[{"name":"","type":"uint256","internalType":"uint256"}],"outputs":[{"name":"trader","type":"address","internalType":"address"},{"name":"bondAmount","type":"uint256","internalType":"uint256"},{"name":"slashThreshold","type":"uint256","internalType":"uint256"},{"name":"currentScore","type":"uint256","internalType":"uint256"},{"name":"createdAt","type":"uint256","internalType":"uint256"},{"name":"status","type":"uint8","internalType":"enum VigilSlash.BondStatus"}],"stateMutability":"view"},{"type":"function","name":"traderFollowers","inputs":[{"name":"","type":"uint256","internalType":"uint256"},{"name":"","type":"uint256","internalType":"uint256"}],"outputs":[{"name":"","type":"address","internalType":"address"}],"stateMutability":"view"},{"type":"function","name":"updateScore","inputs":[{"name":"traderId","type":"uint256","internalType":"uint256"},{"name":"newScore","type":"uint256","internalType":"uint256"}],"outputs":[],"stateMutability":"nonpayable"},{"type":"function","name":"usdc","inputs":[],"outputs":[{"name":"","type":"address","internalType":"contract IERC20"}],"stateMutability":"view"},{"type":"function","name":"withdrawFees","inputs":[{"name":"amount","type":"uint256","internalType":"uint256"}],"outputs":[],"stateMutability":"nonpayable"},{"type":"event","name":"BondSlashed","inputs":[{"name":"traderId","type":"uint256","indexed":true,"internalType":"uint256"},{"name":"slashAmount","type":"uint256","indexed":false,"internalType":"uint256"},{"name":"followersCompensated","type":"uint256","indexed":false,"internalType":"uint256"}],"anonymous":false},{"type":"event","name":"FollowerExited","inputs":[{"name":"traderId","type":"uint256","indexed":true,"internalType":"uint256"},{"name":"follower","type":"address","indexed":true,"internalType":"address"},{"name":"returned","type":"uint256","indexed":false,"internalType":"uint256"}],"anonymous":false},{"type":"event","name":"FollowerStaked","inputs":[{"name":"traderId","type":"uint256","indexed":true,"internalType":"uint256"},{"name":"follower","type":"address","indexed":true,"internalType":"address"},{"name":"amount","type":"uint256","indexed":false,"internalType":"uint256"}],"anonymous":false},{"type":"event","name":"OracleUpdated","inputs":[{"name":"oldOracle","type":"address","indexed":true,"internalType":"address"},{"name":"newOracle","type":"address","indexed":true,"internalType":"address"}],"anonymous":false},{"type":"event","name":"ScoreUpdated","inputs":[{"name":"traderId","type":"uint256","indexed":true,"internalType":"uint256"},{"name":"oldScore","type":"uint256","indexed":false,"internalType":"uint256"},{"name":"newScore","type":"uint256","indexed":false,"internalType":"uint256"}],"anonymous":false},{"type":"event","name":"TraderBonded","inputs":[{"name":"traderId","type":"uint256","indexed":true,"internalType":"uint256"},{"name":"trader","type":"address","indexed":true,"internalType":"address"},{"name":"amount","type":"uint256","indexed":false,"internalType":"uint256"}],"anonymous":false},{"type":"error","name":"ReentrancyGuardReentrantCall","inputs":[]},{"type":"error","name":"SafeERC20FailedOperation","inputs":[{"name":"token","type":"address","internalType":"address"}]}],"bytecode":{"object":"0x608060405260026003556001600755348015610019575f5ffd5b5060405161288e38038061288e833981810160405281019061003b91906101b5565b600161005961004e61012560201b60201c565b61014e60201b60201c565b5f0181905550815f5f6101000a81548173ffffffffffffffffffffffffffffffffffffffff021916908373ffffffffffffffffffffffffffffffffffffffff1602179055508060015f6101000a81548173ffffffffffffffffffffffffffffffffffffffff021916908373ffffffffffffffffffffffffffffffffffffffff1602179055503360025f6101000a81548173ffffffffffffffffffffffffffffffffffffffff021916908373ffffffffffffffffffffffffffffffffffffffff16021790555050506101f3565b5f7f9b779b17422d0df92223018b32b4d1fa46e071723d6817e2486d003becc55f005f1b905090565b5f819050919050565b5f5ffd5b5f73ffffffffffffffffffffffffffffffffffffffff82169050919050565b5f6101848261015b565b9050919050565b6101948161017a565b811461019e575f5ffd5b50565b5f815190506101af8161018b565b92915050565b5f5f604083850312156101cb576101ca610157565b5b5f6101d8858286016101a1565b92505060206101e9858286016101a1565b9150509250929050565b61268e806102005f395ff3fe608060405234801561000f575f5ffd5b5060043610610114575f3560e01c80637f8661a1116100a0578063a22a64281161006f578063a22a6428146102dc578063a574aaae146102f8578063cb64708514610328578063d6e6eb9f1461035d578063ecb8d1551461037b57610114565b80637f8661a11461024257806385b0dcff1461025e5780638da5cb5b1461028e5780638e70d3b9146102ac57610114565b80635e318e07116100e75780635e318e07146101a05780636f5e926a146101bc5780637adbf973146101ec5780637b0472f0146102085780637dc0d1d01461022457610114565b806309218e7b1461011857806323364162146101345780633e413bee14610152578063421826a414610170575b5f5ffd5b610132600480360381019061012d9190611a4c565b6103af565b005b61013c61057a565b6040516101499190611a99565b60405180910390f35b61015a610580565b6040516101679190611b2c565b60405180910390f35b61018a60048036038101906101859190611b80565b6105a4565b6040516101979190611c5c565b60405180910390f35b6101ba60048036038101906101b59190611c75565b610697565b005b6101d660048036038101906101d19190611ca0565b6107a5565b6040516101e39190611a99565b60405180910390f35b61020660048036038101906102019190611cf0565b610a49565b005b610222600480360381019061021d9190611a4c565b610b96565b005b61022c610f2b565b6040516102399190611d2a565b60405180910390f35b61025c60048036038101906102579190611c75565b610f50565b005b61027860048036038101906102739190611a4c565b6110e2565b6040516102859190611d2a565b60405180910390f35b61029661112a565b6040516102a39190611d2a565b60405180910390f35b6102c660048036038101906102c19190611c75565b61114f565b6040516102d39190611deb565b60405180910390f35b6102f660048036038101906102f19190611a4c565b6111eb565b005b610312600480360381019061030d9190611c75565b611583565b60405161031f9190611ef7565b60405180910390f35b610342600480360381019061033d9190611c75565b611664565b60405161035496959493929190611f1f565b60405180910390f35b6103656116c7565b6040516103729190611a99565b60405180910390f35b61039560048036038101906103909190611b80565b6116cd565b6040516103a6959493929190611f8d565b60405180910390f35b60015f9054906101000a900473ffffffffffffffffffffffffffffffffffffffff1673ffffffffffffffffffffffffffffffffffffffff163373ffffffffffffffffffffffffffffffffffffffff161461043e576040517f08c379a000000000000000000000000000000000000000000000000000000000815260040161043590612038565b60405180910390fd5b815f600281111561045257610451611e0b565b5b60045f8381526020019081526020015f206005015f9054906101000a900460ff16600281111561048557610484611e0b565b5b146104c5576040517f08c379a00000000000000000000000000000000000000000000000000000000081526004016104bc906120a0565b60405180910390fd5b6064821115610509576040517f08c379a000000000000000000000000000000000000000000000000000000000815260040161050090612108565b60405180910390fd5b5f60045f8581526020019081526020015f206003015490508260045f8681526020019081526020015f2060030181905550837fb2383e82269e758b9ec0fc961ac69cecc166570a12068c11b3f9cf29c8de9e88828560405161056c929190612126565b60405180910390a250505050565b60075481565b5f5f9054906101000a900473ffffffffffffffffffffffffffffffffffffffff1681565b6105ac61197b565b60055f8481526020019081526020015f205f8373ffffffffffffffffffffffffffffffffffffffff1673ffffffffffffffffffffffffffffffffffffffff1681526020019081526020015f206040518060a00160405290815f82015f9054906101000a900473ffffffffffffffffffffffffffffffffffffffff1673ffffffffffffffffffffffffffffffffffffffff1673ffffffffffffffffffffffffffffffffffffffff168152602001600182015481526020016002820154815260200160038201548152602001600482015f9054906101000a900460ff161515151581525050905092915050565b60025f9054906101000a900473ffffffffffffffffffffffffffffffffffffffff1673ffffffffffffffffffffffffffffffffffffffff163373ffffffffffffffffffffffffffffffffffffffff1614610726576040517f08c379a000000000000000000000000000000000000000000000000000000000815260040161071d90612197565b60405180910390fd5b61072e611735565b61079a60025f9054906101000a900473ffffffffffffffffffffffffffffffffffffffff16825f5f9054906101000a900473ffffffffffffffffffffffffffffffffffffffff1673ffffffffffffffffffffffffffffffffffffffff166117579092919063ffffffff16565b6107a26117aa565b50565b5f6107ae611735565b5f84116107f0576040517f08c379a00000000000000000000000000000000000000000000000000000000081526004016107e7906121ff565b60405180910390fd5b5f831180156107ff5750606483105b61083e576040517f08c379a000000000000000000000000000000000000000000000000000000000815260040161083590612267565b60405180910390fd5b6064821115610882576040517f08c379a000000000000000000000000000000000000000000000000000000000815260040161087990612108565b60405180910390fd5b6108cf3330865f5f9054906101000a900473ffffffffffffffffffffffffffffffffffffffff1673ffffffffffffffffffffffffffffffffffffffff166117c4909392919063ffffffff16565b60075f8154809291906108e1906122b2565b9190505590506040518060c001604052803373ffffffffffffffffffffffffffffffffffffffff1681526020018581526020018481526020018381526020014281526020015f600281111561093957610938611e0b565b5b81525060045f8381526020019081526020015f205f820151815f015f6101000a81548173ffffffffffffffffffffffffffffffffffffffff021916908373ffffffffffffffffffffffffffffffffffffffff1602179055506020820151816001015560408201518160020155606082015181600301556080820151816004015560a0820151816005015f6101000a81548160ff021916908360028111156109e3576109e2611e0b565b5b02179055509050503373ffffffffffffffffffffffffffffffffffffffff16817f0d10620622e5d1cf86edda7b8a6d93bfdbeab1ed71a4edd5871ef53935b21e3786604051610a329190611a99565b60405180910390a3610a426117aa565b9392505050565b60025f9054906101000a900473ffffffffffffffffffffffffffffffffffffffff1673ffffffffffffffffffffffffffffffffffffffff163373ffffffffffffffffffffffffffffffffffffffff1614610ad8576040517f08c379a0000000000000000000000000000000000000000000000000000000008152600401610acf90612197565b60405180910390fd5b8073ffffffffffffffffffffffffffffffffffffffff1660015f9054906101000a900473ffffffffffffffffffffffffffffffffffffffff1673ffffffffffffffffffffffffffffffffffffffff167f078c3b417dadf69374a59793b829c52001247130433427049317bde56607b1b760405160405180910390a38060015f6101000a81548173ffffffffffffffffffffffffffffffffffffffff021916908373ffffffffffffffffffffffffffffffffffffffff16021790555050565b610b9e611735565b815f6002811115610bb257610bb1611e0b565b5b60045f8381526020019081526020015f206005015f9054906101000a900460ff166002811115610be557610be4611e0b565b5b14610c25576040517f08c379a0000000000000000000000000000000000000000000000000000000008152600401610c1c906120a0565b60405180910390fd5b5f8211610c67576040517f08c379a0000000000000000000000000000000000000000000000000000000008152600401610c5e90612343565b60405180910390fd5b60055f8481526020019081526020015f205f3373ffffffffffffffffffffffffffffffffffffffff1673ffffffffffffffffffffffffffffffffffffffff1681526020019081526020015f206004015f9054906101000a900460ff1615610d03576040517f08c379a0000000000000000000000000000000000000000000000000000000008152600401610cfa906123ab565b60405180910390fd5b610d503330845f5f9054906101000a900473ffffffffffffffffffffffffffffffffffffffff1673ffffffffffffffffffffffffffffffffffffffff166117c4909392919063ffffffff16565b6040518060a001604052803373ffffffffffffffffffffffffffffffffffffffff1681526020018381526020015f81526020014281526020016001151581525060055f8581526020019081526020015f205f3373ffffffffffffffffffffffffffffffffffffffff1673ffffffffffffffffffffffffffffffffffffffff1681526020019081526020015f205f820151815f015f6101000a81548173ffffffffffffffffffffffffffffffffffffffff021916908373ffffffffffffffffffffffffffffffffffffffff1602179055506020820151816001015560408201518160020155606082015181600301556080820151816004015f6101000a81548160ff02191690831515021790555090505060065f8481526020019081526020015f2033908060018154018082558091505060019003905f5260205f20015f9091909190916101000a81548173ffffffffffffffffffffffffffffffffffffffff021916908373ffffffffffffffffffffffffffffffffffffffff1602179055503373ffffffffffffffffffffffffffffffffffffffff16837ff7d423e827fbda043931d98f672a18441c79b0383c9101d6d40e5f608ad3a5a884604051610f169190611a99565b60405180910390a350610f276117aa565b5050565b60015f9054906101000a900473ffffffffffffffffffffffffffffffffffffffff1681565b610f58611735565b5f60055f8381526020019081526020015f205f3373ffffffffffffffffffffffffffffffffffffffff1673ffffffffffffffffffffffffffffffffffffffff1681526020019081526020015f209050806004015f9054906101000a900460ff16610ff7576040517f08c379a0000000000000000000000000000000000000000000000000000000008152600401610fee90612413565b60405180910390fd5b5f8160020154826001015461100c9190612431565b90505f82600101819055505f82600201819055505f826004015f6101000a81548160ff02191690831515021790555061108633825f5f9054906101000a900473ffffffffffffffffffffffffffffffffffffffff1673ffffffffffffffffffffffffffffffffffffffff166117579092919063ffffffff16565b3373ffffffffffffffffffffffffffffffffffffffff16837f6f34c45fc06282a14665853c262a2670cbbd351946cf85c1569d2ab2cf2ba41c836040516110cd9190611a99565b60405180910390a350506110df6117aa565b50565b6006602052815f5260405f2081815481106110fb575f80fd5b905f5260205f20015f915091509054906101000a900473ffffffffffffffffffffffffffffffffffffffff1681565b60025f9054906101000a900473ffffffffffffffffffffffffffffffffffffffff1681565b606060065f8381526020019081526020015f208054806020026020016040519081016040528092919081815260200182805480156111df57602002820191905f5260205f20905b815f9054906101000a900473ffffffffffffffffffffffffffffffffffffffff1673ffffffffffffffffffffffffffffffffffffffff1681526020019060010190808311611196575b50505050509050919050565b60015f9054906101000a900473ffffffffffffffffffffffffffffffffffffffff1673ffffffffffffffffffffffffffffffffffffffff163373ffffffffffffffffffffffffffffffffffffffff161461127a576040517f08c379a000000000000000000000000000000000000000000000000000000000815260040161127190612038565b60405180910390fd5b815f600281111561128e5761128d611e0b565b5b60045f8381526020019081526020015f206005015f9054906101000a900460ff1660028111156112c1576112c0611e0b565b5b14611301576040517f08c379a00000000000000000000000000000000000000000000000000000000081526004016112f8906120a0565b60405180910390fd5b611309611735565b5f60045f8581526020019081526020015f2090508060020154816003015410611367576040517f08c379a000000000000000000000000000000000000000000000000000000000815260040161135e906124d4565b60405180910390fd5b5f83118015611377575060648311155b6113b6576040517f08c379a00000000000000000000000000000000000000000000000000000000081526004016113ad9061253c565b60405180910390fd5b5f60648483600101546113c9919061255a565b6113d391906125c8565b90505f6064600354836113e6919061255a565b6113f091906125c8565b90505f81836113ff91906125f8565b905082846001015f82825461141491906125f8565b925050819055506001846005015f6101000a81548160ff0219169083600281111561144257611441611e0b565b5b02179055505f60065f8981526020019081526020015f2090505f818054905090505f811115611536575f818461147891906125c8565b90505f5f90505b82811015611533578160055f8d81526020019081526020015f205f8684815481106114ad576114ac61262b565b5b905f5260205f20015f9054906101000a900473ffffffffffffffffffffffffffffffffffffffff1673ffffffffffffffffffffffffffffffffffffffff1673ffffffffffffffffffffffffffffffffffffffff1681526020019081526020015f206002015f82825461151f9190612431565b92505081905550808060010191505061147f565b50505b887f426c41404c6ba09bf011e1b0de2ad289fb3cdc730da2417b1d67838c7efa69808683604051611568929190612126565b60405180910390a250505050505061157e6117aa565b505050565b61158b6119bd565b60045f8381526020019081526020015f206040518060c00160405290815f82015f9054906101000a900473ffffffffffffffffffffffffffffffffffffffff1673ffffffffffffffffffffffffffffffffffffffff1673ffffffffffffffffffffffffffffffffffffffff16815260200160018201548152602001600282015481526020016003820154815260200160048201548152602001600582015f9054906101000a900460ff16600281111561164757611646611e0b565b5b600281111561165957611658611e0b565b5b815250509050919050565b6004602052805f5260405f205f91509050805f015f9054906101000a900473ffffffffffffffffffffffffffffffffffffffff1690806001015490806002015490806003015490806004015490806005015f9054906101000a900460ff16905086565b60035481565b6005602052815f5260405f20602052805f5260405f205f9150915050805f015f9054906101000a900473ffffffffffffffffffffffffffffffffffffffff1690806001015490806002015490806003015490806004015f9054906101000a900460ff16905085565b61173d611819565b600261174f61174a61185a565b611883565b5f0181905550565b611764838383600161188c565b6117a557826040517f5274afe700000000000000000000000000000000000000000000000000000000815260040161179c9190611d2a565b60405180910390fd5b505050565b60016117bc6117b761185a565b611883565b5f0181905550565b6117d28484848460016118ee565b61181357836040517f5274afe700000000000000000000000000000000000000000000000000000000815260040161180a9190611d2a565b60405180910390fd5b50505050565b61182161195f565b15611858576040517f3ee5aeb500000000000000000000000000000000000000000000000000000000815260040160405180910390fd5b565b5f7f9b779b17422d0df92223018b32b4d1fa46e071723d6817e2486d003becc55f005f1b905090565b5f819050919050565b5f5f63a9059cbb60e01b9050604051815f525f1960601c86166004528460245260205f60445f5f8b5af1925060015f511483166118e05783831516156118d4573d5f823e3d81fd5b5f873b113d1516831692505b806040525050949350505050565b5f5f6323b872dd60e01b9050604051815f525f1960601c87166004525f1960601c86166024528460445260205f60645f5f8c5af1925060015f5114831661194c578383151615611940573d5f823e3d81fd5b5f883b113d1516831692505b806040525f606052505095945050505050565b5f600261197261196d61185a565b611883565b5f015414905090565b6040518060a001604052805f73ffffffffffffffffffffffffffffffffffffffff1681526020015f81526020015f81526020015f81526020015f151581525090565b6040518060c001604052805f73ffffffffffffffffffffffffffffffffffffffff1681526020015f81526020015f81526020015f81526020015f81526020015f6002811115611a0f57611a0e611e0b565b5b81525090565b5f5ffd5b5f819050919050565b611a2b81611a19565b8114611a35575f5ffd5b50565b5f81359050611a4681611a22565b92915050565b5f5f60408385031215611a6257611a61611a15565b5b5f611a6f85828601611a38565b9250506020611a8085828601611a38565b9150509250929050565b611a9381611a19565b82525050565b5f602082019050611aac5f830184611a8a565b92915050565b5f73ffffffffffffffffffffffffffffffffffffffff82169050919050565b5f819050919050565b5f611af4611aef611aea84611ab2565b611ad1565b611ab2565b9050919050565b5f611b0582611ada565b9050919050565b5f611b1682611afb565b9050919050565b611b2681611b0c565b82525050565b5f602082019050611b3f5f830184611b1d565b92915050565b5f611b4f82611ab2565b9050919050565b611b5f81611b45565b8114611b69575f5ffd5b50565b5f81359050611b7a81611b56565b92915050565b5f5f60408385031215611b9657611b95611a15565b5b5f611ba385828601611a38565b9250506020611bb485828601611b6c565b9150509250929050565b611bc781611b45565b82525050565b611bd681611a19565b82525050565b5f8115159050919050565b611bf081611bdc565b82525050565b60a082015f820151611c0a5f850182611bbe565b506020820151611c1d6020850182611bcd565b506040820151611c306040850182611bcd565b506060820151611c436060850182611bcd565b506080820151611c566080850182611be7565b50505050565b5f60a082019050611c6f5f830184611bf6565b92915050565b5f60208284031215611c8a57611c89611a15565b5b5f611c9784828501611a38565b91505092915050565b5f5f5f60608486031215611cb757611cb6611a15565b5b5f611cc486828701611a38565b9350506020611cd586828701611a38565b9250506040611ce686828701611a38565b9150509250925092565b5f60208284031215611d0557611d04611a15565b5b5f611d1284828501611b6c565b91505092915050565b611d2481611b45565b82525050565b5f602082019050611d3d5f830184611d1b565b92915050565b5f81519050919050565b5f82825260208201905092915050565b5f819050602082019050919050565b5f611d778383611bbe565b60208301905092915050565b5f602082019050919050565b5f611d9982611d43565b611da38185611d4d565b9350611dae83611d5d565b805f5b83811015611dde578151611dc58882611d6c565b9750611dd083611d83565b925050600181019050611db1565b5085935050505092915050565b5f6020820190508181035f830152611e038184611d8f565b905092915050565b7f4e487b71000000000000000000000000000000000000000000000000000000005f52602160045260245ffd5b60038110611e4957611e48611e0b565b5b50565b5f819050611e5982611e38565b919050565b5f611e6882611e4c565b9050919050565b611e7881611e5e565b82525050565b60c082015f820151611e925f850182611bbe565b506020820151611ea56020850182611bcd565b506040820151611eb86040850182611bcd565b506060820151611ecb6060850182611bcd565b506080820151611ede6080850182611bcd565b5060a0820151611ef160a0850182611e6f565b50505050565b5f60c082019050611f0a5f830184611e7e565b92915050565b611f1981611e5e565b82525050565b5f60c082019050611f325f830189611d1b565b611f3f6020830188611a8a565b611f4c6040830187611a8a565b611f596060830186611a8a565b611f666080830185611a8a565b611f7360a0830184611f10565b979650505050505050565b611f8781611bdc565b82525050565b5f60a082019050611fa05f830188611d1b565b611fad6020830187611a8a565b611fba6040830186611a8a565b611fc76060830185611a8a565b611fd46080830184611f7e565b9695505050505050565b5f82825260208201905092915050565b7f566967696c3a2063616c6c6572206973206e6f7420746865206f7261636c65005f82015250565b5f612022601f83611fde565b915061202d82611fee565b602082019050919050565b5f6020820190508181035f83015261204f81612016565b9050919050565b7f566967696c3a20626f6e64206973206e6f7420616374697665000000000000005f82015250565b5f61208a601983611fde565b915061209582612056565b602082019050919050565b5f6020820190508181035f8301526120b78161207e565b9050919050565b7f566967696c3a20696e76616c69642073636f72650000000000000000000000005f82015250565b5f6120f2601483611fde565b91506120fd826120be565b602082019050919050565b5f6020820190508181035f83015261211f816120e6565b9050919050565b5f6040820190506121395f830185611a8a565b6121466020830184611a8a565b9392505050565b7f566967696c3a2063616c6c6572206973206e6f7420746865206f776e657200005f82015250565b5f612181601e83611fde565b915061218c8261214d565b602082019050919050565b5f6020820190508181035f8301526121ae81612175565b9050919050565b7f566967696c3a20626f6e6420616d6f756e74206d757374206265203e203000005f82015250565b5f6121e9601e83611fde565b91506121f4826121b5565b602082019050919050565b5f6020820190508181035f830152612216816121dd565b9050919050565b7f566967696c3a20696e76616c6964207468726573686f6c6400000000000000005f82015250565b5f612251601883611fde565b915061225c8261221d565b602082019050919050565b5f6020820190508181035f83015261227e81612245565b9050919050565b7f4e487b71000000000000000000000000000000000000000000000000000000005f52601160045260245ffd5b5f6122bc82611a19565b91507fffffffffffffffffffffffffffffffffffffffffffffffffffffffffffffffff82036122ee576122ed612285565b5b600182019050919050565b7f566967696c3a207374616b6520616d6f756e74206d757374206265203e2030005f82015250565b5f61232d601f83611fde565b9150612338826122f9565b602082019050919050565b5f6020820190508181035f83015261235a81612321565b9050919050565b7f566967696c3a20616c7265616479207374616b656400000000000000000000005f82015250565b5f612395601583611fde565b91506123a082612361565b602082019050919050565b5f6020820190508181035f8301526123c281612389565b9050919050565b7f566967696c3a206e6f207374616b6520666f756e6400000000000000000000005f82015250565b5f6123fd601583611fde565b9150612408826123c9565b602082019050919050565b5f6020820190508181035f83015261242a816123f1565b9050919050565b5f61243b82611a19565b915061244683611a19565b925082820190508082111561245e5761245d612285565b5b92915050565b7f566967696c3a2073636f72652061626f7665207468726573686f6c642c2063615f8201527f6e6e6f7420736c61736800000000000000000000000000000000000000000000602082015250565b5f6124be602a83611fde565b91506124c982612464565b604082019050919050565b5f6020820190508181035f8301526124eb816124b2565b9050919050565b7f566967696c3a20696e76616c696420736c6173682070657263656e74000000005f82015250565b5f612526601c83611fde565b9150612531826124f2565b602082019050919050565b5f6020820190508181035f8301526125538161251a565b9050919050565b5f61256482611a19565b915061256f83611a19565b925082820261257d81611a19565b9150828204841483151761259457612593612285565b5b5092915050565b7f4e487b71000000000000000000000000000000000000000000000000000000005f52601260045260245ffd5b5f6125d282611a19565b91506125dd83611a19565b9250826125ed576125ec61259b565b5b828204905092915050565b5f61260282611a19565b915061260d83611a19565b925082820390508181111561262557612624612285565b5b92915050565b7f4e487b71000000000000000000000000000000000000000000000000000000005f52603260045260245ffdfea26469706673582212204a31484bfa251778093cae21806c8bb430875c3f3baa5133874e9cc7e9e40bed64736f6c63430008220033","linkReferences":{}},"methodIdentifiers":{"exit(uint256)":"7f8661a1","followerStakes(uint256,address)":"ecb8d155","getFollowerStake(uint256,address)":"421826a4","getFollowers(uint256)":"8e70d3b9","getTraderBond(uint256)":"a574aaae","nextTraderId()":"23364162","oracle()":"7dc0d1d0","owner()":"8da5cb5b","postBond(uint256,uint256,uint256)":"6f5e926a","protocolFeePercent()":"d6e6eb9f","setOracle(address)":"7adbf973","slash(uint256,uint256)":"a22a6428","stake(uint256,uint256)":"7b0472f0","traderBonds(uint256)":"cb647085","traderFollowers(uint256,uint256)":"85b0dcff","updateScore(uint256,uint256)":"09218e7b","usdc()":"3e413bee","withdrawFees(uint256)":"5e318e07"},"id":8}